:020000040800F2
:10000000500D0020C5000008CD000008DD0C0008E0
:1000100000000000000000000000000000000000E0
:10002000000000000000000000000000D1000008F7
:100030000000000000000000D3000008B5440008E4
:10004000D7000008D7000008D7000008D700000834
:10005000D70000084D020008D7000008D7000008AC
:100060000000000021020008D70000083502000847
:10007000D700000839450008D7000008D70000085D
:10008000D70000080000000000000000D7000008B2
:1000900000000000D7000008D7000008D7000008C3
:1000A00000000000D7000008000000009D5100087B
:1000B0000348854600F050F800480047B554000852
:1000C000500D00200448804704480047FEE7FEE743
:1000D000FEE7FEE7FEE7FEE7DD440008B1000008AA
:1000E00030B50B46014600202022012409E00D46D0
:1000F000D5409D4205D31D469540491B2546954058
:1001000040191546521E002DF1DC30BD70B500249B
:100110002546002801DA01244042002901DA0125A0
:100120004942FFF7DDFFAC4200D04042002C00D036
:10013000494270BDD2B201E00270401C491EFBD2A0
:1001400070470022F6E710B513460A4604461946E2
:10015000FFF7F0FF204610BD064C0125064E05E0D6
:10016000E36807CC2B430C3C98471034B442F7D3D8
:10017000FFF7A2FF205C0008405C000870B58C18F7
:100180000578401C6B075B0F01D10378401C2A11D6
:1001900006D10278401C03E006780E70401C491C12
:1001A0005B1EF9D12B0705D40023521E0DD40B7012
:1001B000491CFAE70378401CCB1A921C03E01D7817
:1001C0000D70491C5B1C521EF9D5A142D8D30020EA
:1001D00070BD30B40AB203460846091414460D46F1
:1001E00054434D4364191D886D43A54215D2B02573
:1001F000ED5C240E641B2406E40DE3185B885A436F
:10020000D417640CA218D21310465943CA17520CC3
:100210005118C91380B20904084330BC704700006C
:1002200010B503490720486004F0BAF910BD00007A
:100230000000024004480168C943890402D4012136
:1002400049034160704700000000024010B50349B7
:100250000120486104F0FDFD10BD000000040140D4
:1002600002468032116A0B7C022B0AD14B698969E4
:100270009962136AD9691B6A8B62116A4A6A896A30
:10028000916201216030017700207047F0B40021B5
:10029000002826D044780178631E6118002B17DDF2
:1002A0000126421CE507F607F54202D05578691889
:1002B000521C567800255B1008D097788919D6789B
:1002C000ED19921C89B2ADB25B1EF6D1491989B203
:1002D000641E03D400198078401881B2080A4018BF
:1002E000C1B2F0BC08467047002141820175024648
:1002F000417580329175D17511765176FF309176C6
:100300000130C176017741777047002804D010B4DE
:10031000019C1EC010BC70477047F7B586B00698A8
:100320000021415602910798002800DC40420490C9
:10033000002A07D0012A08D00698C068904207D149
:1003400000201CE0002009B0F0BD079809B0F0BD06
:1003500006988069904201D1012010E00698406A19
:10036000904201D102200AE00698006B904201D130
:10037000032004E00698C06B90421FD104200C219A
:100380004843069941188D6848680499040C8AB25C
:100390000B0C81B2104648435943000C081881B237
:1003A00062435118000C090C081863431818079988
:1003B00028410029CADC404209B0F0BD01920392F5
:1003C000002A00DA524201990120C90FC0070D1816
:1003D000144611462846FFF783FE691A491E1F2559
:1003E000E8070091FFF77CFE009906464843E907BD
:1003F0000F1A2146E807FFF773FE01466143EA073B
:10040000511A009A76007F006D1C974201D3BF1AE3
:10041000761C40004900A14201D3091B401C621A0E
:100420009642EED3964201D1002FEAD00199401CAA
:10043000002900DA4042029A0C235A43069B039992
:10044000D218203D9560D16050600299491C49B294
:10045000052900DB0021069A117096E70021017042
:1004600041608160C160016141618161C16101627E
:1004700041628162C162016341638163C16370470C
:10048000262210B54243124B0021D2181180518010
:100490009180D1809181D18111825182D183D18289
:1004A0000B0C13835183840093830A4811840059F1
:1004B00002F09CF808480021005902F097F807481C
:1004C000005903F068FB0648005902F0EFF910BD2F
:1004D000C00700204C0700205007002044070020E0
:1004E0005C07002001480068704700008C0700206E
:1004F00002480168491C0160704700008C07002019
:1005000010B506480168102211430160032000F075
:1005100007F800F017F8002010BD0000002002408E
:1005200010B5044600F0A4F97D21C900FFF7D8FDFD
:1005300000F0B2FB00222146501E00F017F8002008
:1005400010BD0000084881B081690122114381611A
:10055000816911400091C26901040A43C261C06906
:100560000840009001B07047001002408207D30E8F
:10057000FF229A408907090E994000280BDA0007EC
:10058000000F0838830808489B001818C369934374
:100590000B43C3617047830804489B001B1818680D
:1005A000904308431860704700ED00E000E400E06D
:1005B000F8B504460068C0035BD539480027C06918
:1005C000C00008D43648C26901040A43C261C06948
:1005D000084001270090334D2868C00511D42868D1
:1005E000A91508432860FFF77DFF06462868C00567
:1005F00007D4FFF777FF801B642826D82868C0053A
:10060000F7D52748006A03210902084023D0626811
:100610000A4082421FD0224E306A326A884301214A
:1006200009040A433262326A8A4332623062C00786
:1006300011D0FFF757FF316A054689070BD41A4ED0
:10064000FFF750FF401BB04201D90320F8BD14480A
:10065000006A8007F4D51248016A0322120291430E
:10066000626811430162002F03D0C26901048A430A
:10067000C2612078C00706D00948016BA2688908CA
:100680008900114301632078800606D50448016B78
:1006900010229143E268114301630020F8BD00007D
:1006A000001002400070004088130000F0B50546BD
:1006B000614889B000680F46C007C00FB8420AD22F
:1006C0005D48016849084900394301600068C00776
:1006D000C00FB84271D12878800706D557484168C5
:1006E000F0229143AA68114341602878C00754D092
:1006F0006868012821D051490228096822D0890759
:100700005BD54E4C61688908890001436160FFF741
:10071000E9FE064669684A48012916D0626802293E
:1007200025D01207920F38D00446FFF7DBFE801B5E
:10073000A0422DD9032009B0F0BD404909688903C2
:100740003BD5DEE7890138D5DBE762681207920FF7
:10075000012A22D00446FFF7C5FE801BA042E9D83B
:10076000364840680007800F0128F4D115E01207D1
:10077000920F022A11D00446FFF7B4FE801BA0425C
:10078000D8D82E4840680007800F0228F4D104E032
:100790002A4840680007800FC7D127480168C90769
:1007A000C90FB9420CD901684908490039430160B1
:1007B0000068C007C00FB84202D0012009B0F0BDE8
:1007C0002878400707D51D48416807221202914347
:1007D000EA68114341601B4A6C460FCA0FC41A4BAA
:1007E000164D0FCB0FC46A680C2011460140174804
:1007F000042913D0082911D19102090F6B465C5CC2
:10080000E96A04AB0907090F595CD20303D5FFF766
:1008100067FC604302E00E492046484369680D4A80
:100820000906090F515CC8400B4908600320FFF717
:1008300077FE002009B0F0BD002002400010024009
:1008400088130000CC080008DC08000800127A00B9
:1008500000093D00EC59000890070020034801689A
:100860000122D204114301607047000000100240D1
:1008700001480068704700009007002010B513A0E1
:100880000FC888B06C460FC414A30FCB0FC4174910
:100890004A680C20134603401548042B0FD0082B40
:1008A0000DD193021C0F6B461C5DC96A04AB09078E
:1008B000090F595CD20304D5FFF712FC604308B05E
:1008C00010BD0C4808B0604310BD000002030405D1
:1008D000060708090A0B0C0D0E0F10100102030485
:1008E00005060708090A0B0C0D0E0F100010024038
:1008F00000127A0000093D00F8B504460078E24D88
:10090000C0074BD068680007800F012807D06868CF
:100910000007800F022809D16868C00306D528683F
:1009200080033BD5606800287ED037E001206268F4
:100930000004012A1CD08100002A01D0052A1BD006
:100940002A6882432A6028688843286060680028F3
:1009500016D0FFF7C7FD0646286880031ED4FFF7B0
:10096000C1FD801B642878D828688003F7D515E07E
:10097000296801432960E9E72A680A432A60F7E702
:10098000FFF7B0FD06462868800307D5FFF7AAFDEC
:10099000801B642861D828688003F7D420788007FA
:1009A00040D568680007800F07D068680007800F8F
:1009B000022809D16868C00306D42868800718D5C2
:1009C000E068012830D114E0E0680028286818D0D9
:1009D000012108432860FFF785FD06462868800747
:1009E00007D4FFF77FFD801B022836D828688007D0
:1009F000F7D52868F82188432169C9000843286091
:100A000010E0400840002860FFF76CFD06462868AB
:100A1000800707D5FFF766FD801B02281DD82868D0
:100A20008007F7D4207800E02BE1000728D5E069A3
:100A3000002813D0696A012001436962FFF752FD63
:100A40000646686A80071BD4FFF74CFD801B02280E
:100A500003D8686A8007F7D512E08DE0686A40081D
:100A600040006862FFF73EFD0646686A800707D5CA
:100A7000FFF738FD801B02287ED8686A8007F7D40C
:100A80002078400768D500200090E869C00008D4AD
:100A9000E869012109070843E861E8690840012085
:100AA00000907A4F3868C00511D43868B9150843EA
:100AB0003860FFF717FD06463868C00507D4FFF712
:100AC00011FD801B642857D83868C005F7D5A06889
:100AD00001281ED0002801D005281ED0286A400811
:100AE00040002862296A042081432962A068684E78
:100AF00000281BD0FFF7F6FC0746286A800723D49E
:100B0000FFF7F0FCC01BB04260D8286A8007F7D519
:100B10001AE0296A01200143E7E7286A0421084313
:100B20002862286A012108432862DFE7FFF7DAFC20
:100B30000746286A800707D5FFF7D4FCC01BB042E0
:100B400044D8286A8007F7D40098002804D0E969BF
:100B5000012000078143E9612078C0061CD5606947
:100B6000012835D0401D51D0686B042108436863CB
:100B7000686B4008400000E028E06863FFF7B2FCC3
:100B80000646686B800707D5FFF7ACFC801B022880
:100B90001CD8686B8007F7D4206A00286FD069687A
:100BA0000907890F02296CD0012636060228286819
:100BB00031D0B0432860FFF795FC044628688001D7
:100BC0005DD5FFF78FFC001B022855D90320F8BD27
:100BD000696B042001436963686B01210843686302
:100BE000FFF780FC0646686B800707D4FFF77AFCA6
:100BF000801B0228EAD8686B8007F7D5686BF8215C
:100C00008843A169C90008436863C5E7696B04208C
:100C100081436963F2E7B0432860FFF763FC07464E
:100C20002868800107D5FFF75DFCC01B0228CDD8DE
:100C300028688001F7D4E86AE16A000900010843E6
:100C4000E862A16A606A014368683D221204904329
:100C500001436960286830432860FFF743FC04467D
:100C6000286880010BD4FFF73DFC001B0228ADD89B
:100C700028688001F7D502E028688001A1D400200F
:100C8000F8BD0120F8BD00000010024000700040D7
:100C900088130000704700000B4910B4401E8842C2
:100CA00002D910BC01207047084948610848072252
:100CB000C3691B021B0A4C042343C36100208861E3
:100CC0000A6110BC70470000FFFFFF0000E000E079
:100CD00004ED00E010B5FFF7DDFF10BD03F050FCA0
:100CE000154C0825206AC069C043000706D4134884
:100CF00003F069FD206A056204F0DCF8206AC0692F
:100D0000C043000602D40D4803F0FFFD206AC1690C
:100D1000C9438906E6D4808CC1B2084803F05CFD63
:100D20000088012804D00228DCD104F0C3F8D9E7F8
:100D300004F0BAF8D6E70000FC060020FC0500200D
:100D400030B483680122DB43DB070AD08C684B6830
:100D5000C9682343C468054D2C4021430B43C3603D
:100D600000E0002230BC104670470000C73FFFFF84
:100D700030B483680122DB43DB070ED04C680B687C
:100D8000CD6823438C6809692C4323430B43C16816
:100D9000044C21400B43C36000E0002230BC1046ED
:100DA000704700003CC2FEFF10B4047901232B49B8
:100DB0000268002C47D0002A4CD04479002C0FD078
:100DC000012C15D0022C1BD000238279002A41D09F
:100DD000012A1DD0022A24D0032A2BD0002339E077
:100DE0004C6894434C6002680C6814430C60ECE758
:100DF0000C6894430C6002684C6814434C60E4E750
:100E00000C6814430C6002684C6814434C60DCE7C7
:100E10000268CC689443CC6000688A6802438A60A8
:100E200018E002688C6894438C600068CA680243CA
:100E3000CA600FE002688C6814438C600068CA685E
:100E40000243CA6006E00C6894430C6000684A687C
:100E500082434A6010BC18467047000000040140FD
:100E6000F0B40A680024002A41D001220B68A24095
:100E7000134038D04F6806681A465A435500551932
:100E8000AE4357433E4306604E68012E01D0022E0A
:100E900005D18F6886685743AE433E4386600F692D
:100EA000C668AE4315467D432E43C6604D68022D8D
:100EB00019D1FF2B0AD84E69056A5A435A431301C8
:100EC0009B1A9D437243154305620CE01D0A2B4695
:100ED0006B436B436B431D01EE1A4A69456A5343EA
:100EE000B5431D4345620A68641CE240BDD14A68AF
:100EF000012A01D0022A06D1CB680A6841689143D1
:100F00005A4311434160F0BC01207047014610B5BF
:100F10000020002918D1154C216B8907890F012960
:100F200013D002291AD0032912D002F05BFA6168AB
:100F3000F02211400E4A0909515CC84061680D4A0F
:100F40004905490F515CC84010BD02F04BFA10BD75
:100F50002168C9438907FAD4074810BD216AC943EB
:100F60008907FAD40120C00310BD00000010024020
:100F7000EC590008FC59000800127A000A7B032390
:100F80001B029A438B681A4301239B029A434B68C6
:100F90001A430123DB029A430B681A4301231B0304
:100FA0009A43CB891A4301235B039A430B6949692E
:100FB0001A4301239B039A430A435B009A430A4363
:100FC0004264012070470000F0B402681A4B01240B
:100FD000A4071A4D984203D0A04201D0A84203D1E1
:100FE0007026B2434E683243154E164F98420AD0CF
:100FF000A04208D0A84206D0134CA04203D0B04271
:1010000001D0B84204D103242402A243CC68224375
:1010100002608A68C2620A888262984203D0B04243
:1010200001D0B84201D1097C016341690122114319
:101030004161F0BC10467047002C014000040040A4
:10104000004401400048014000200040F0B5002469
:1010500001237D4D7D4E012938D0102973D0FF39F1
:10106000491E6FD00F273F02B9422DD1046A1903E0
:101070008C430462016A44688E46C7697321090281
:101080008F43116809020F43BC4671465F03B943A1
:1010900017693F0339431F03B94357683F03394377
:1010A000A84204D0B04202D0694DA84205D1012522
:1010B000AD03AC439569AD012C4344606446C46103
:1010C000D268026401621C462046F0BD016A4908EC
:1010D00049000162046A4168A6468469A708BF0006
:1010E0007024A74314682743BC4674460227BC43B8
:1010F00017693C436408576864003C43A84204D025
:10110000B04202D0524DA84214D10825AC435569D3
:10111000AD002C430425AC439568AD002C43FF255E
:101120000135A9439569294301256D02A943D56974
:101130006D002943416061468161D1684163046269
:10114000C1E700E03CE0016A1024A1430162076AA4
:101150004468BC46816973273F02B94317683F0260
:1011600039438E46674620218F43116909010F4399
:1011700010218F43516809010F43A84204D0B042A7
:1011800002D03349884215D180218F4351698901AA
:101190000F4340218F43916889010F430121890248
:1011A0008C43916989000C430121C9028C43D169A8
:1011B000C9000C43446071468161D168816340E09D
:1011C000016AFF240134A1430162076A4168BC46F9
:1011D000C4697027A408A400BC4317683C43A64612
:1011E000012467466402A743146924022743FF24AD
:1011F0000134A743546824022743A84204D0B042D4
:1012000002D0134CA04217D10124E402A743546931
:10121000A40227430124A402A7439468A4022743FD
:1012200001242403A143946924012143012464037C
:10123000A143D4696401214341607146C161D16811
:10124000C16307623FE70000002C014000440140F9
:101250000048014070B5044600680D460026C043B2
:10126000C0073BD0E9686868AA6908432969114347
:10127000084321681A4A114008432060A968606841
:10128000032212039043084360606969A068121149
:1012900090430843A060134884421FD10020FFF709
:1012A00035FE00281AD02968002917D00126AA691E
:1012B000F3039A420CD140004A088018FEF710FF51
:1012C00081B2094808400907490F0143E16005E080
:1012D0004A081018FEF704FF80B2E060304670BD87
:1012E000F369FFFF00380140F0FF000010B504462D
:1012F000406802F0ABFCA1680882000C488210BD77
:1013000010B50068012102F008FD10BD002839D099
:1013100010B50446007E012833D1217B002001292D
:1013200004D0022910D0032929D11EE0A168203160
:1013300008710121606802F0B2FC0E21E28A615E50
:10134000606802F032FC0CE0A168203108710021D5
:10135000606802F0A4FC1021E28A615E606802F01D
:1013600024FC00280BD002200AE0A16801202031D3
:101370000871A068618A0182A18A4182F3E7032093
:10138000207610BD704701230373C181C2820376AA
:1013900043767047022303730182C28201210176E2
:1013A00000214176704710B5006802F086FC10BD40
:1013B00010B5406802F061FC02F07CFB10BD407E7D
:1013C0007047836819880846598880B20904084321
:1013D0007047836899880846D98880B20904084311
:1013E0007047014601200B7B821E012B08D0022B87
:1013F0000CD0032B03D11223CB5E002B04DB7047F0
:101400000E23CB5E002BFADA104670471023CB5E1A
:10141000002BF9DB7047836899890846D98980B227
:101420000904084370478368198A0846598A80B2BC
:10143000090408437047027B0021012A01D10E21D3
:10144000415E0846704710B5406802F008FC10BDC8
:1014500010B5006802F05AFC10BD81681E20085EBD
:1014600070478368598B0846998B80B209040843FA
:1014700070478368D98A0846198B80B209040843EB
:10148000704783604260016000210173C181018265
:10149000C18201767047032202734182091481825E
:1014A000012101760021417670478268518280686F
:1014B0008182704710B504460068032102F02DFCBC
:1014C000002801D00121217610BD10B50068072148
:1014D00002F023FC10BD10B5406802F0E6FB10BD21
:1014E00001B2120C12048BB21A430D4B0014594373
:1014F0005843091808180B494042C013CB4388428F
:1015000003DC1946884200DB01B290B20A041043A2
:10151000994203D1044980B209040843704700008E
:10152000E6490000FF7F00000180FFFFF0B505469F
:10153000084600F053F829B22A140B4606B20714E5
:10154000154671437D43481B1449C5138D4201DD87
:10155000084603E01248854200DB28B2250C2D0422
:1015600084B225430E4CA04203D12D0C0D482D040E
:1015700005437B4372439818C013884204DCA042A1
:1015800001DA214600E001B2A8B20A041043A142E8
:1015900003D1054980B209040843F0BDFF7F000074
:1015A0000080FFFF018000000180FFFF70B505464D
:1015B000084600F013F8024629B203B228140E467A
:1015C000121405465E435543751951435843401A5A
:1015D000ED13C113A8B20904084370BD0122D20360
:1015E000821812040323920D1B021A40012330B407
:1015F000DB03C11889040C0E6300FF252C1B1E4958
:101600006400002A1FD0FF3A521E29D0FF3A521E12
:101610000ED0FF3A012A09D10A5BC95A80B21204DE
:1016200010434942000C000489B2084330BC7047A3
:10163000CA5A80B21204095B1043000C000489B23C
:1016400030BC08437047CA5A095B524280B2120448
:1016500010434942000C000489B230BC0843704773
:101660000A5B80B252421204C95A1043000C0004B3
:1016700089B230BC08437047045A0008FFB581B0F6
:1016800017460E460A9D0C9A0B99044686618030D7
:101690008262C1620A4800900A4B0B4A21463046DA
:1016A000FEF733FEE761049865622062A069A847EF
:1016B0008021B0200155216AA069884705B0F0BD9E
:1016C000CD160008E5160008E51C000810B5044614
:1016D000616A806988478021B0200155216AA0692C
:1016E000884710BDFFB505469BB01C982E464009A3
:1016F0000027803614460090002812D0421E002198
:10170000284603F0E8FB00281AD01C98C006C00E3B
:101710001C90F06A002804D0009A0021521E03F0A9
:10172000DAFB1C980D2877D2010079440979491811
:101730008F44B70AA8B67272B5B4B3B2B1B0AF00F5
:101740000B2069460871C3E22078009005206946A5
:1017500008710098462852D02CDC0E287AD00DDC77
:101760000E2855D201007944097949188F44555003
:10177000506250727272727272727272162869D0EE
:101780000BDC0F38072843D2010079440979491846
:101790008F446069693E3E6060001C2851D004DCC3
:1017A000172857D0182833D154E01D2849D0412894
:1017B0002ED14FE061284DD012DC4738152827D2B2
:1017C00001007944097949188F444D4D2222222283
:1017D00022224422222244444444444444224D00D0
:1017E000772840D00CDC742824D004DC642831D065
:1017F00065280DD12EE0752835D0762808D132E045
:10180000782830D079282ED07D282CD07E282AD058
:1018100002206946087115E057E26478F06A2246B2
:10182000009903F058FB22462846009903F053FB29
:10183000074607E001466278284603F04CFB07465E
:1018400000E00127002F2CD000231A46F021EC697C
:10185000A86942E2A17860780902421828460099F6
:1018600003F039FBEBE7A178607809024018E178D2
:10187000227909041206891842182846009903F0B3
:101880002AFBDCE7217803206A461071832908D2FD
:1018900008E0F0E1D9E1CAE1A9E17EE16AE13FE1D6
:1018A00036E18FE1880000BF78444068874400003B
:1018B0000C020000440200000C0200000C020000B8
:1018C0004402000028020000280200002802000054
:1018D0002802000028020000280200002802000060
:1018E0002802000028020000280200002802000050
:1018F0002802000028020000280200002802000040
:10190000280200002802000028020000280200002F
:10191000280200002802000028020000280200001F
:1019200020040000200400004402000028020000FF
:1019300028020000280200000C0200002004000021
:101940002004000020040000200400002004000007
:1019500020040000200400002004000020040000F7
:1019600020040000200400002004000020040000E7
:1019700020040000200400002004000020040000D7
:1019800020040000200400002004000020040000C7
:1019900020040000200400002004000020040000B7
:1019A00020040000200400002004000020040000A7
:1019B0002004000028020000200400002004000091
:1019C0002004000020040000440200004402000043
:1019D0004402000028020000280200002802000043
:1019E000280200000C02000044020000280200004F
:1019F000280200002802000028020000280200003F
:101A0000280200002802000028020000280200002E
:101A100028020000280200000C020000440200001E
:101A20002004000028020000280200002802000014
:101A3000280200002802000020040000200400000A
:101A400028020000280200000C0200000C02000026
:101A5000440200004402000044020000440200006E
:101A6000440200000C0200002802000028020000CE
:101A700044020000200400002802000028020000A8
:101A80000C02000044020000440200004402000076
:101A9000440200004402000044020000440200002E
:101AA000440200004402000044020000440200001E
:101AB0000C020000200400000C020000284602F086
:101AC000A3FF0090401C7DD00123EC696A46F02101
:101AD000A869A0471FB0F0BD284602F095FF00900E
:101AE000401C6FD00223EC696A46F021A869A04728
:101AF0001FB0F0BD284602F087FF0090401C61D067
:101B00000423EC696A46F021A869A0471FB0F0BD24
:101B1000217807206A461071284602F027FF8EE6DA
:101B20000020029003900490059006900790089082
:101B300002AA099005E01318401CC0B2D9701D28F4
:101B400003D2B16A095C0929F5D1B26A411D535C1F
:101B500069460B72C11D525C69464A72B16A09300E
:101B6000085C694688722023EC6902AAF021A86902
:101B7000A04769E6617920790902401882B261784C
:101B8000207809024018A178E37809041B06C918D7
:101B90004118284602F024FF51E60FA80090217852
:101BA0000EAB10AA284603F033F969463820085EC8
:101BB0000621484308A9087202124A7202148A7266
:101BC000000E00E084E0C8726946888F08A9087397
:101BD0000012487310A9088808A98873000AC873FE
:101BE0000823EC690AAAF021A869A04770E0217ACD
:101BF000E0790902401887B2A1786078090240189C
:101C0000E1782279090412068918401826780621FD
:101C1000FEF77CFA03B2A17960790902401800B29C
:101C200000903A463146284603F06BFA07E66178A1
:101C300020780902401801B2E278A07812028018D8
:101C400002B2284603F03CF9FEE50C9408A91E9860
:101C500008750C206946087121490CA802F0D2FED3
:101C6000002835D01E48EC6903790268F021A86984
:101C7000A0471FB0F0BD002012A904E00A54401C88
:101C8000C0B2202803D2B26A125C002AF6D1202208
:101C9000121A002A12DD0818401ED10702D00021B6
:101CA0004170401C51100906090E07D000224270F5
:101CB0008270801C491E0906090EF8D12023EC69A8
:101CC00012AAF021A869A047BEE501206946087163
:101CD0000123EC6901AAFF21A869A0471FB0F0BD4C
:101CE0000C00002010B50446616A80698847802195
:101CF000B0200155216AA069884710BD10B502487F
:101D00000068FFF7A5FB10BD0400002010B5084CCB
:101D1000207800280BD000F00DF82078012804D19D
:101D2000002002F0F9FC01F061FC03F0A7F810BDFF
:101D300038070020F0B5A74C83B0207801287DD16A
:101D40006088002802D06088401E33E10020694688
:101D50000880A14802F0B2F80646A048006800F0EA
:101D60008FFC9F4801F0D2FFC01E112851D2010004
:101D70007944097949188F44084DC0DBF5F3F24CDA
:101D80004C4C4C4C4C13202C99009648006801F0A8
:101D9000A9FA1420A0801021914801F0BEFF08E1AB
:101DA000A088002835D18F480021006800F09EFCF3
:101DB00011218B4801F0B1FFFBE08A480121006846
:101DC00000F094FC002824D01221854801F0A5FFE2
:101DD000EFE085480121017184488549006801F0E0
:101DE00062FF84480068FFF7FCFA0146824801F070
:101DF0002DFD794802F034FA0421794801F08DFF75
:101E0000002806D00020FEF73BFB7648006801F072
:101E10007FF9CEE0784801F05AFD002840D07348A1
:101E2000006801F08BFE754A80B2938A190408435A
:101E30001082000C508201A96D4800E0C7E003F059
:101E4000E6F968460421415E634802F0D3FA05468C
:101E50000146674803F009FB002D47D05E4801F0BA
:101E60002DFE664E0146B2881046F28880B21204FA
:101E70001043FFF75BFB624D07B2286801F0D3FC0B
:101E80001021715E0022286801F04FFC19223946AA
:101E9000286801F04AFC1321281D01F03EFF88E06C
:101EA000002210214E4801F013FFC4E7524801F010
:101EB0000EFD00281BD001A94D4803F0A8F90546E6
:101EC0004B4803F0E4FA284373D04E4D286800F0E5
:101ED0007BFB4A4910228A5E50432A68014610461D
:101EE00000F084FB05213E4801F017FF61E000226D
:101EF00010213B4801F0ECFE5BE03C4E3649306877
:101F000001F0D1FE3D4D2420405D002804D1306811
:101F100001F014FEE88328820621314801F0FDFE1D
:101F2000306801F08BFE33480068FFF7EFF940E0BE
:101F300030480068FFF7EAF9304D2420405D002862
:101F400005D12A48006801F0F9FDE8832882002EB7
:101F50002FD100222021224801F0BAFE29E01CE006
:101F600013E0FFE71F48006801F08AF80020FEF741
:101F700087FA1A48006800F067F919204001E080EC
:101F80000821174801F0C9FE13E0E088002810D1AD
:101F90000921134801F0C1FE0BE014481449006800
:101FA00001F081FE124803F0CBF900210C4801F04A
:101FB000B4FE01206080A088002802D0A088401EC6
:101FC000A080E088002802D0E088401EE08003B0B6
:101FD000F0BD0000380700206C03002060070020DF
:101FE0006C0700205C070020E00700204407002069
:101FF000FC02002040070020E0010020C007002074
:10200000680700204807002010B502480068FFF765
:1020100051FA10BD0400002010B502480068FFF717
:1020200054FA10BD04000020F3B5524E81B00024D4
:10203000524934705048086052485149016008467E
:1020400000F0F6FD504801F063FE504800F0C4FA7D
:102050004F484E490160504D4E4828604F4802F0AD
:1020600061F9281D01684D4A286801F008FE4C48B6
:1020700003F089F943484B4B00680090484A4A48AE
:10208000296801F074FC494800F0A6FA484800F0BD
:10209000A3FA484845490160474845490160474817
:1020A000F06101F0DDFC474945480860FF30013030
:1020B000F169454FC7600161444800F06CFA44483B
:1020C0004249016044494348086001F0ACFB0020EC
:1020D000FEF7D6F9414901200871286801F0B6FDE4
:1020E0003882000C7882286801F0B0FD0014B882B4
:1020F0003C4F3B483860344B23492A68FFF7C1F90D
:10210000286801F0B2FD3B68014600221846FFF73F
:102110003AF9019839680160281D01683248016068
:1021200024490968416024490968C46081601549EF
:10213000096801611C4941611849C46181611849FC
:102140000162296841621049816214390968C162DB
:10215000F1694463846301631A490968046444644F
:102160008464C464C163029908600120307003B0C4
:10217000F0BD00003807002048050020640700205B
:10218000580200205C0700206C0700202801002076
:1021900048070020AC010020440700206C03002009
:1021A000FC0200208C040020E001002054010020EB
:1021B000800100204C07002050070020C8040020A8
:1021C0001400002060070020C0070020A0040020A9
:1021D00058070020F004002068070020E0070020D6
:1021E000E80700204007002004080020F0B405465E
:1021F000EE1D8C460846F936318849006852308811
:102200007080401C80B23080802801D30020308054
:1022100000220224AA5E2C5F002328463F270421C7
:102220001219415E0624045F5B18001D7F1EF6D163
:10223000FE21695ED0180818C117490E0818C01190
:10224000B080F0BC6046704710B5FF2104460131F4
:10225000FDF777FF0020FF3401342080608010BD3F
:10226000FF210531085E704708B5FEF701FB7D21AF
:102270000901FDF735FFFEF70FFD07490748FFF796
:10228000D3FE03F01BFB0648034B00901A1F0121ED
:10229000044802F04FFF08BD0800002004000020A1
:1022A0009B59000800000020F0B59BB000240D945D
:1022B0000C940E940F9410941294139414941594F7
:1022C00016941794189419940694079408948B4EB6
:1022D00009940A940B9402940394B069F11408438E
:1022E000B061B069084011907069C901084370611C
:1022F000706902250840119088110595009001959C
:10230000049569467E48FEF7ABFD684604862020AA
:102310000D907C480E90E8010F90012110A80170EB
:102320000CA97948FEF750FE774800688021884361
:10233000754908607548774F0178754808181190FD
:102340003B780821026899400A4302606020179494
:1023500013941494129015941694189412AA0121AF
:1023600019946948FEF772FE11983B7804210268BF
:1023700099408A430260F81F8178654808181190D7
:10238000BB780821026899400A430260139412AA9C
:1023900010215D481494FEF759FE1198BB78042172
:1023A000026899408A430260F81F0179584808186A
:1023B00011903B790821026899400A430260139406
:1023C00012AAE90150481494FEF740FE11983B7997
:1023D0000421026899408A430260F81F81794C48C1
:1023E00008181190BB790821026899400A430260DD
:1023F00070201290484815901394149412AAE90280
:102400004148FEF723FE1198BB79042102689940E8
:102410008A4302603C4840687021884308433A4937
:10242000486088688021884337498860C8140690CE
:102430004010079080100890132108A80171E9024C
:102440006846C18448000A9006A90B942E48FEF7FE
:1024500095FD7069690408437061706908401190C6
:1024600070694910084370617069059508401190C2
:10247000081103260090019504956946029603947D
:102480001F48FEF7EDFC6803059500900195049543
:102490006946029603941A48FEF7E2FCA8030595E4
:1024A0000090019504956946029603941448FEF73E
:1024B000D7FCE80109270595FF06009001950495D2
:1024C0006946029603943846FEF7CAFC2802059531
:1024D0000090019504956946029603943846FEF7EC
:1024E000BFFC680205950090019504956946029627
:1024F00003943846FEF7B4FC1BB0F0BD0010024058
:1025000000040048DC050000002C01408D59000843
:10251000182C0140945900089905000010B5044694
:102520000078002803D00020E08280B210BD262071
:10253000005D00F0C3FF0D490246884208D0208BA1
:10254000238A0146401E43439818FDF7C9FD2082A7
:10255000208A618B884201D9082005E0A18B88423E
:1025600001D2002000E0E08AE082DEE7FFFF000009
:102570000178002902D0808A00B27047018A026A7D
:102580008A1A1E21415E808C5143CA17120C5118C1
:1025900009140818F0E770B50446007800250028F3
:1025A00003D0E582608A208270BD201D01F060F8B2
:1025B00026210855258270BD01462220085E7047FD
:1025C00001460620085E7047408B70470146042094
:1025D000085E7047008B7047018881804188C18008
:1025E000018C418400218160816270478160704765
:1025F00041847047C180704781807047F0B40422E5
:10260000825E062314251624C35E0026455F045F00
:102610004A43002B09D087684B43F91808D5002F8F
:102620000BDD002B09DD144907E0002181600DE07E
:10263000002F02DA002B00DA1049C3688B4202DB5C
:1026400003698B4201DD836000E081608168877FE0
:102650000B463B41077F3A419A18AA4202DDAE1A67
:102660002A4603E0A24201DAA61A224689198160AD
:10267000F0BC10B270470000FFFFFF7F0100008038
:1026800070B5C51DF935EA68044693891846D389A3
:1026900080B21B041843D38A128B99B212041143DF
:1026A00002B20BB2001409145A4348431018C11760
:1026B000090C08180614286902F0A2FDA96848430D
:1026C0004B21C900FDF722FD014630464843062153
:1026D00048430A21FDF71AFDC117090C0818011417
:1026E0002046FFF783FD70BD016B084770B50546B6
:1026F000002640350446002902D0012907D014E005
:1027000081688847688C6882002808D00DE0688A54
:10271000002809D0401E0004000C688205D1216900
:1027200020468847012600E00126304670BD4268F9
:102730001047F0B4024640320BB2158C09146943BD
:102740009488490063434942CC18E60F3419CB1AE8
:10275000DE0FF31864105B10AD08002C3FDA002B7D
:1027600013DA0421D180E11ACE17B60B711889143F
:102770006D18D917C90BC91849144B19E117C90BA2
:10278000091949146C1A816A68E0002913DC0324D2
:10279000D480CC1AE617B60B3419A4142D19DC1703
:1027A000E40BE318CC17E40B5B1461185B194914B4
:1027B0005C1A416A52E00223D380631ADE17B60B1B
:1027C000F3189B14ED18E317DB0B1B195B14EC1AC1
:1027D000CB17DB0B591849140B19016A3EE0002B8B
:1027E00013DB0121D180E11ACE17B60B71188914C1
:1027F0006D18D917C90BC91849144B19E117C90B22
:10280000091949146C1AC16928E0002913DC052351
:10281000D380631ADE17B60BF3189B14ED18E31779
:10282000DB0B1B195B14EC1ACB17DB0B5918491483
:102830000B19C16A12E00024D480CC1AE617B60B3B
:102840003419A4142D19DC17E40BE318CC17E40B8E
:102850005B1461185B1949145C1A8169ADB215816A
:102860009BB25381A4B29481968B012E1CD1162663
:10287000965F002ED68B01DDAD1900E0AD1B1581F2
:102880001825555F002D02DDB5B25B1901E0B5B228
:102890005B1B53811A23D35E002B02DDABB2E3181E
:1028A00001E0ABB2E31A9381F0BC084781680847A6
:1028B000F0B50546044680352888102108430021DC
:1028C0002880E166216727466D4E60376167F9779A
:1028D000286A41788278C078914233D2824205D208
:1028E000002028720120687202200CE0814205D28B
:1028F0000020287202206872012004E00120287262
:10290000022068720020A8725E48316A81433162F9
:102910005D4860605D48A061E06120626062A06225
:10292000E062204600F0F4FB286A02228079401C15
:10293000400801014118D2433261FB7F0020102B77
:1029400016D328E0814205D2012028720020687247
:102950000220D8E7824205D2022028720020687245
:102960000120D0E702202872012068720020CAE707
:102970003369DB439B070BD43261401C80B2884231
:1029800006D3FB7F102B03D201204E21085302E017
:10299000FB7F102BECD32046002240300274BA7F1C
:1029A0003749012A14D04A6C0B159A434A642A6AA3
:1029B0009446127C022A0BD16246536992699A624C
:1029C0002A6AD369126A9A622A6A536A926A9A6276
:1029D0004A6C0123DB039A434A642D492D4A097846
:1029E000525802239A432B4B5A502B498A682B4B3F
:1029F0001A4010328A60CA6852085200CA60254BD9
:102A000002225A6004220A60CA6837239B019A4353
:102A1000CA600021E972E26E1209E266226F1209B1
:102A20002267626F120962671D4A62601D4AA261D5
:102A30001D4AE2611D4A22621D4A62621D4AA2626B
:102A40001D4AE262B3691D4A1340B361F369134042
:102A5000F361028F7263028FB263008FF063B26919
:102A600017480243B261F2690243F2610548326AD3
:102A700002433262B9772988102081432980F0BD52
:102A8000002C014055050000D52B0008E52D00085D
:102A9000045C00080000024000240140E8FFFF7FC2
:102AA000C52A00082F2E0008912E0008F32E0008DA
:102AB000552F0008B92F00081D300008F7F7000057
:102AC00008080000F0B40122414CD24303462261C1
:102AD00005464035AE79520C80305442062E6CD2F9
:102AE00037007F443F79FF19BF441E434302021E53
:102AF000066A7778B678B74202D24788868801E0BE
:102B000087884688D86EC01BA04201DA0C8004E09A
:102B1000904201DD0A8000E00880186F801BA0420F
:102B200048DB904242DC47E0066AB778F678B74265
:102B300002D24788868801E087884688186FC01BC4
:102B4000A04201DA4C8004E0904201DD4A8000E0BE
:102B50004880586F0223CB5E801B18184042904279
:102B600001DD0A8029E0A04201DA0C8025E008801E
:102B700023E0066A7778F678B74202D247888688DB
:102B800001E087884688D86EC01BA04201DA0C801D
:102B900004E0904201DD0A8000E00880586F0023C5
:102BA000CB5E801B18184042904201DD4A8004E051
:102BB000A04201DA4C8000E048800888E88248881A
:102BC000288308884988401840426883F0BC7047D1
:102BD000002C014030B4154A0123DB431361034646
:102BE0006033DA7F102A1CD202468032147AC56E16
:102BF00064002418803464882C19C466547A056FE4
:102C000064002418803464882C190467927A446F15
:102C10005200121880325288A2184267D87F401C96
:102C2000D87700200880488030BC7047002C0140D5
:102C3000F8B4594F8446796804208143796038603C
:102C400079680820814379603860544C20680121FC
:102C5000C9040843206052486246016801231943B1
:102C60000160FF25016A1235294301621146803156
:102C70000D6A2D7C012D03D14A4E056A354305624C
:102C80008025ED430561C56880263543C5604569EB
:102C90001D4345614032158F6D1E456200259583A9
:102CA000958CD583F5430561A569F0030543A561BE
:102CB000A4690440C5123C480094C4682C43C46015
:102CC000B8681724A043E4072043B860B868C0433D
:102CD000FCD5B868C0434007F8D5B868C043C00603
:102CE000F4D5B868C0438007F0D5B8682F4C2040B1
:102CF000401CB8603868C043C007FBD1604604463A
:102D00002B482C4D06788234745105782B4E2A4C72
:102D1000AC5104782A4D032667593F0C3F043743D2
:102D2000675100782C1F24581C432D1F2C500C6A0F
:102D30001E4660781F46850686403543A678B00655
:102D4000B740384305436803400B086160781E466E
:102D5000850686403543E6781F46B006B7403843BF
:102D600005436803400B4861A5781E46A806AE409F
:102D7000E4783043A506A3401D4328434003400B9D
:102D8000886100206346603358771877C872908353
:102D9000908CD083F8BC70470024014000100240A2
:102DA000002C01404404000000580140E8FFFF7F70
:102DB000045C00080C00024040240140080002406E
:102DC0000400024060300021437F0A46012B01D1FC
:102DD00002214277037F012B02D14023194302775E
:102DE00008467047F8B50122014692028031CA6058
:102DF0000C6A012265781646AB06AE40A5783343CF
:102E0000AF061646AE40E4783743A506A2403B43E2
:102E100015432B435A03520BCA6140390A8F52089B
:102E20000A81098F491E89B200F082FAF8BDF8B50F
:102E300003464030048F01890246A446601A84B2DA
:102E400018468030076A3E89B44206D90321D180F2
:102E5000118F0269491E89B215E0558964004D1B26
:102E6000ADB2AC4202D27A89891A0AE0891989B2D4
:102E70008C4507D80124E402C460128F5200511A15
:102E8000491E89B28269C261184600F051FAF8BD44
:102E9000F8B503464030048F41890246A446601AC3
:102EA00084B218468030076A3E89B44206D90321AD
:102EB000D180118F0269491E89B215E0158964001D
:102EC0004D1BADB2AC4202D27A89891A0AE0891947
:102ED00089B28C4507D80124E402C460128F5200E5
:102EE000511A491E89B24269C261184600F020FA9F
:102EF000F8BDF8B503464030048F41890246A44628
:102F0000601A84B218468030076A3E89B44206D9F6
:102F10000321D180118F0269491E89B215E095897C
:102F200064004D1BADB2AC4202D27A89891A0AE024
:102F3000891989B28C4507D80124E402C460128F34
:102F40005200511A491E89B24269C261184600F006
:102F5000EFF9F8BDF8B503464030048F8189024689
:102F6000A446601A84B218468030076A3E89B4428B
:102F700007D90321D180118F0269491E89B2C2612C
:102F800016E0558964004D1BADB2AC4202D27A897D
:102F9000891A0AE0891989B28C4507D80124E4020C
:102FA000C460128F5200511A491E89B20269C2616F
:102FB000184600F0BDF9F8BDF8B503464030048F5F
:102FC00081890246A446601A84B218468030076A96
:102FD0003E89B44207D90321D180118F0269491E6D
:102FE00089B2C26116E0158964004D1BADB2AC42D6
:102FF00002D27A89891A0AE0891989B28C4507D8E0
:103000000124E402C460128F5200511A491E89B291
:103010000269C261184600F08BF9F8BDF8B50346A5
:103020004030048F01890246A446601A84B21846D3
:103030008030076A3E89B44206D90321D180118FBE
:103040000269491E89B215E0958964004D1BADB235
:10305000AC4202D27A89891A0AE0891989B28C4570
:1030600007D80124E402C460128F5200511A491E8D
:1030700089B28269C261184600F05AF9F8BD0000B1
:1030800070B4002250231A547E231B5C1B498030ED
:10309000012B12D04B6C0C15A3434B64036A1C7CB0
:1030A000022C0AD15C699B69A362036ADC691B6A12
:1030B000A362046A636AA46A9C624B6C0124E40301
:1030C000A3434B640F490E4B09785D580224A54376
:1030D0005D500D498D680D4E354010358D60CD68C1
:1030E0006D086D00CD605C6004230B60CB683724F5
:1030F000A401A343CB60C27270BC7047002C014096
:1031000000000240045C000800240140E8FFFF7F4B
:10311000F0B40346002140331974012180306B4A1A
:10312000C172CD1E15611469E443E407FBD115613A
:103130001C8F640854631C8F640894631C8F64089C
:10314000D4631B8F5B1F13641369DB43DB07FBD165
:10315000536C0124A40223435364536C640123433E
:103160005364036A1C7C022C19D1126A584C224207
:103170005A690AD09C699461026AD369126A9A6199
:10318000026A536A926A9A6109E09B699362036AD0
:10319000DA691B6A9362036A5A6A9B6A93620278CD
:1031A0004C4BD206002A45DA046A0E4665780F4673
:1031B000AA06AE40A5783243AE06AF403E43E4785F
:1031C0003243A5060E46A64035432A435403424ADD
:1031D000640B9462046A55692478ED08ED00254378
:1031E00055613E4CDD7F66597608760066510326B0
:1031F000DD7F271DEF593F0C3F043743261DAF519C
:10320000DD7F66590E43665104241460D468A40817
:10321000A4000C43D460D468032189028C43D46099
:10322000D16814152143D16091682D4C2140091DAE
:1032300091603EE0056A0E466C78A206A640AC7826
:103240003243A5060E46A64035432A435403224A7C
:10325000640B9462046A55692478ED08ED002543F7
:1032600055611E4CDD7F6659760876006651022650
:10327000DD7F271DEF593F0C3F043743261DAF511B
:10328000DD7F66590E43665104241460D468A40897
:10329000A4000C43D460D1680324A402A143D160EC
:1032A000D16814152143D16091680D4C2140091D4E
:1032B00091600A4904224A60DB7FCC580222144301
:1032C000CC50018811430180F0BC7047002C0140B4
:1032D00055050000E55B00080024014000000240A5
:1032E000E8FFFF7F0123502210491354DA1E0A61C0
:1032F00000224A638A63CA630A69D243D207FBD1B8
:103300004A6C0123DB031A434A648030016A0A7C59
:10331000022A0AD14A6989699161016ACA69096AFE
:103320009161006A416A806A88617047002C01409F
:10333000F0B402468C468032116A03464033CC68B2
:10334000188960635889A0639889E0631F4E2049FB
:10335000B07945182F681F48817908208840874335
:103360002F601D492164B57901212646890218364E
:10337000AD192E6806432E60604620642069C04364
:10338000C00704D00020DC89012C02D004E0012019
:10339000F9E701200024DC81104BD568DC680326A6
:1033A000B602B4432C43DC60D4699C62146A5D6944
:1033B0002478ED08ED0025435D619C68084D2C40A4
:1033C000241D9C60D160F0BC70470000095C0008BF
:1033D000182C0140105C0008FFFF00000024014091
:1033E000E8FFFF7F10B50F4C61680C2001400E48CC
:1033F00017D0042915D0082913D1616801231B04B3
:103400000A4A194001D0994200D01046E16A0907E2
:10341000090F491CFCF764FE61688902090F891CC9
:10342000484310BD0010024000127A0000093D0020
:103430001D480621007802464A431C49895C01293F
:1034400031D1F0B41A4B0421196081001948435856
:103450001B68DC68A408A400DC6043581B68DC68B7
:103460003725AD01AC43DC6044582368A4685D692E
:10347000ED08ED0025435D6143581D791E68012369
:10348000AC061F46AF403C436403640BB462405833
:1034900000688168084C2140091D816003481018AC
:1034A0004370F0BC7047704772070020840800200A
:1034B0000024014054080020E8FFFF7FF0B40622FA
:1034C00007465743444A0021D55D13460424FB18A0
:1034D000002D24D106254D43565D012E0DD1AE1889
:1034E0007579854208D95D71197106214D43707156
:1034F000A9180871042100E00C46491CC9B204292E
:1035000012D0E7D30121D155002159703349062546
:103510000C786C43A2185278012A00D00870304908
:10352000C97A002911D053E0042C0BD00621614345
:103530008D18697959711C71062461436871891865
:103540000871DFE725490870DCE7264A800011583A
:103550000968CC68A408A400CC6011580968CC683C
:103560003725AD01AC43CC6014582168A4684D697F
:10357000ED08ED0025434D6111580D790E68AC063C
:103580000121A9400C436103490BB1621158042485
:1035900009680C60115809688C68134D2C40241D73
:1035A0008C60105800680168C9434907FBD4006C5F
:1035B00058800A4801788900515801220968CC686E
:1035C000A408A4001443CC605979017002205870FB
:1035D0005888F0BC70470000840800207207002063
:1035E000D802002054080020E8FFFF7F70B50C4C83
:1035F000A078012812D16078FFF760FFA080014613
:103600000220A07065780748EA008358002B05D097
:103610000026A670101842682846984770BD000022
:10362000720700206408002010B40E4906200A78B2
:103630000D4B5043C0184378012B0ED193000B4A19
:10364000D25813681B6C4380022343701268012315
:10365000D468A408A4001C43D4604079087010BC4E
:1036600070470000720700208408002054080020E2
:1036700070B40246FF2015791D4B00218C001C59A7
:10368000002C02D1042800D908462679AE4205D183
:1036900024681668B44201D108460421491CC9B205
:1036A0000429EBD3042820D281005A500023114C66
:1036B000C100635011688C68E443E4070ED08C6845
:1036C0001725AC43ED072C438C6011688A68D24300
:1036D000FCD58A68084C2240521C8A600621074AA1
:1036E0004143535489184871087170BC70470000F9
:1036F0005408002064080020E8FFFF7F84080020B1
:1037000010B5C36842698168012B03D90469611847
:103710005B1E04E0012B03D1416851430023C360C9
:1037200081601830FCF7F9FD10BDF7B5064682B090
:10373000012001900D46304618307269B168FCF7DF
:10374000ECFD864669428C46049801241F2100281E
:1037500039D07046281A009000D5404201228F1AB5
:103760002346BB40984203D2521CD2B2202AF6D341
:103770002746521E97407046002800DA4042012238
:103780008C1A0123A340984203D2521CD2B2202AA1
:10379000F6D30124521E9440280000D56046012231
:1037A0001F218B1A01219940884203D2521CD2B2A8
:1037B000202AF5D30120521E9040A74218D28742FA
:1037C00018D23C4617E02A0000D5624601200F1AA5
:1037D0002346BB409A4203D2401CC0B22028F6D3F5
:1037E000401E844074616C430020B460F06016E0B9
:1037F000844200D304467046756060437461B060D3
:103800003088049948437D21C900FCF769FC401CBD
:10381000F060009A014662431046FCF777FC306185
:10382000019805B0F0BD10B5002181604160C16014
:103830000161012141611830FCF710FE10BD014605
:10384000C9680020002900D101207047F0B5044666
:1038500087B0C06E0090A06E01900E46E1802746B2
:103860000021403779753976F974254639750C355C
:10387000009801F065FD0021019800F010FA6088C1
:10388000704301B2009801F0E5FD00221146019855
:1038900000F08BF9A8882A88704301B2019800F0E3
:1038A00084F968882A88704301B2009801F090FD7D
:1038B0002888218848437D21C900FCF711FC401C61
:1038C000A080A868A0600020F87507B0F0BD70B5B2
:1038D000044680880125002804D0401E0004000C06
:1038E000A08025D1A068002821D08188E28851439A
:1038F000028809B2A06E00F058F9A068E2884188F9
:103900005143028809B2E06E01F062FDA668218889
:10391000308848437D21C900FCF7E2FB401CA080B1
:10392000B068A0604034207E401C207600E0002576
:10393000284670BD014640310A7E497A00208A42FD
:1039400000D3012070474030007A70470C22514369
:103950000818808970470C22514309180E20085E10
:1039600070470C22514309181020085E704770B54B
:1039700006466830049D2EC000240546383D0C36AE
:103980002C7521466C75783802E0B668641CE4B288
:10399000002E01D0052CF8D322460C235A431218CE
:1039A00091602C720088642148437D21C900FCF796
:1039B00097FBA87570BD0C23594308188281704786
:1039C0000C2359430818C28170470C235943081827
:1039D00002827047F8B5054604462035A879FFF7FE
:1039E0006DFD1E49009088422AD06A79216A5200F2
:1039F0008852268B0020002E14D0216A891EF207DF
:103A000001D04888891C720800231206120E08D0C3
:103A10004F8838188F88091DFB18521E1206120E87
:103A2000F6D1C0183146FCF75BFBE0800098A0801F
:103A30006879761EB04201DA401C00E0002068710F
:103A4000E088618B884201D9022005E0A18B884281
:103A500001D2042000E000202081F8BDFFFF00001B
:103A600070B504460C30FFF703FE26210855608B25
:103A7000A18B002340184208208B002815D000217C
:103A8000C007C00F02D0216A0A800121258B854220
:103A90000BDD4E00256A491CAA53256A4E00AA5325
:103AA000258B801C491C8542F3DCA280E2802034F7
:103AB000637170BD01460420085E70470146002016
:103AC000085E704710B50421415ECA03521A0C21EA
:103AD000415E1046FCF71AFB00B210BD70B4002323
:103AE000CE5E0125047C827A002E02DA714289B210
:103AF00000E0098886898E4200D20123C6898E4261
:103B000000D901230821415E002902DA494289B225
:103B100000E00189468A8E4201D3002B04D0A242E4
:103B200005D2521CD2B202E0A24200D20022A2422E
:103B300000D100258272284670BC704770B50178AC
:103B40000546002907D06C68E868012805D9AA69EC
:103B50001419401E06E0AC68F6E7012803D1688816
:103B600004040020E860012905D0E017000C0019CA
:103B70000014AC6070BDE017000C001906146869F1
:103B8000FFF798FF301A01B22869FEF737FD0104EC
:103B90006C60A96070BD0178012905D110B500697C
:103BA0000021FEF723FD10BD7047F8B50D460178E2
:103BB00001260446002909D060680714E08BA8425A
:103BC00016DB2420205EA84212DC13E0A068C31795
:103BD0001B0C18180714E08CA84205DA2820205E78
:103BE0000026A84204DC25E02820205EA84208DD4B
:103BF00000261FE0208CA84203DD2220205EA84280
:103C0000F6DB002A0FD06580A08B7D215043C900D0
:103C1000FCF766FA401CE91B0A040146E060104606
:103C2000FCF774FA05E02804012905D0A060002003
:103C3000E060A0613046F8BD6060F8E710B504466A
:103C40004069FFF737FF0004606010BDC28D114668
:103C5000028E88B2110408437047C08B70474068D9
:103C6000C117090C08180014704701462C20085E83
:103C7000704701462420085E7047406970474261E2
:103C800001612A21095C0170818D09044160C18DA7
:103C90000904816000214180C16081617047017029
:103CA0000021C16070474161704702780021012AFC
:103CB00001D1C160012108467047027800210B2A1A
:103CC00004D109210170002181800121084670473B
:103CD00010B4448803780C439443448082880A4398
:103CE00082800A2B07D0002C02D00A2101700B46DB
:103CF00010BC18467047002CFAD10B2101700B46FE
:103D0000F6E78188408800040843704700787047D0
:103D10000021017041808180704710B40246137801
:103D20000020152B73D21C007C4424792419A7444D
:103D30000D142A2D4E5C6164676A6E6E0A1B202585
:103D4000383D49554400002978D060E0032975D0FA
:103D5000012973D00C2971D05DE007296ED00D299F
:103D60006CD00E296AD052E00E2967D0072965D0A1
:103D70004DE00F2962D0072960D048E002295DD0CC
:103D800007295BD043E0072958D040E0072955D0E8
:103D9000102953D0042951D011294FD001294DD0D9
:103DA00035E011294AD0072948D030E0122945D002
:103DB000072943D0142941D029E012293ED00729F0
:103DC0003CD024E0042939D0072937D01FE013293B
:103DD00034D0072932D0052930D018E004292DD05D
:103DE00007292BD0052929D011E0062926D007293B
:103DF00024D00CE0072921D009E008291ED006E0D4
:103E000009291BD003E0002918D00C2916D003295A
:103E100011D001290FD007290DD0548880210C43DF
:103E2000548094880C43948051880A2B08D0002930
:103E300001D00A21117010BC7047FFE70120F9E79B
:103E40000029F8D10B21F5E770B52C3014460D464A
:103E50000646FEF7BBFB28803046FEF7B1FB20800C
:103E600070BD10B5006800212C30FEF7BFFB10BDFF
:103E700070B4EC24245CC21DF9326400EC212418D7
:103E80006C260D5CA65FD17993791468591A3419A0
:103E900000290FD06918994200DBC91A4900091896
:103EA0006C23CB5EE31A147E19462141C180136056
:103EB00070BC70470421515E631AF4E7F3B5044601
:103EC000E11D8FB0F93107918979002002912246D6
:103ED000491E6A3206900490054603900A900E929D
:103EE0000B91002919DD1146029AD3070122D2074E
:103EF000D34202D00220085E891C02260B9A8E5FF4
:103F00000023521008D004278019CF5F06268E5F49
:103F1000DB19091D521EF6D1C0180299491E04D49E
:103F2000490009196C228A5E10180299FCF7EEF814
:103F300006460B98002820DD02990E98CA07012139
:103F4000C907CA4205D00221415E891B49434D1968
:103F5000801C02230B99C35E002249100CD0042759
:103F60009B1BC75F5B435D190623BF1BC35E7F437B
:103F7000BA18001D491EF2D1AD180298401E06D491
:103F8000400000196C21415E881B404345192846BA
:103F90000299FCF7BBF8079902463046098970433D
:103FA0004143C817400E4018C1118A4201DA01206E
:103FB0000A90A08A0A2170434843C117090C0818C7
:103FC0000014E17AFCF7A2F8109925460880A08039
:103FD000E0350A9E6E73297F01290CD001200490E0
:103FE000287C00283FD00498404206400020002E44
:103FF0003FD0E87337E0002800DA40420799498A49
:10400000814227DD2346403328222A219A5E595EC9
:1040100052434943891806910C21C203615E101A6C
:10402000FCF774F801460798407C4843C217920E8B
:10403000101880114843C117890E03900818811188
:104040000798007C41430398401A0699814201DD9C
:1040500001200490049868742046803006994167D6
:1040600003998167BCE720461099FFF737FD11B02F
:10407000F0BDE97B491CC9B2E973079AD27B914232
:10408000F1D3E873207CA072002011B0F0BDF0B530
:104090002423C35E0446056ED803C21A93B095422A
:1040A00001DD226604E0D803181A854200DC206690
:1040B000206EE51DF9350290EF8A666E384100B238
:1040C000964205DCDA039A1A964201DD626E00E040
:1040D0006266059222233A41E35EA66DDF03FF1A72
:1040E000BC4612B2664501DDA76504E0DF03DF1BB5
:1040F000BE4200DCA765E66D6746664501DDE76503
:1041000004E0DF03DB1B9E4200DCE365A36D01934B
:104110002E7D8F8833411BB29E46DB1B1BB29C4613
:10412000E36D069333411FB21197CE88BB1B1EB2BD
:104130000B8900270B93CF5F7B431B140A93022745
:10414000CF5F0B9B16217B431F140D97615E734657
:1041500010915943019B5F1A1821615E63468E4698
:1041600059437F181E21615E0A9B0C9159437B18AD
:104170001A21615E0B914143591A01911C21615E24
:104180000E9163465943029B278D591813463B41B4
:104190000A972027E75FBC465F430623E35E5F4341
:1041A000C9190291119F10997943069F7F1A714690
:1041B00071437F18BE460D9F0C99794377467F184F
:1041C0000B995143791A06910E997143059E771800
:1041D0000A9906460E41614671434B431C21695EB4
:1041E000FF1A002901DB012101E00021C943234618
:1041F000403318855A85484306B24A43504202B2BA
:1042000000200492205EFDF7E9F90114049A00B23F
:1042100071435043C013C91300B209B2411A20467A
:104220002C30FEF7EBF92146E0310A7BAB79521CCA
:10423000D2B2934200D1002253001B1940339E8D0D
:10424000AE8098850A732188081800B220800199F1
:10425000A1650299216606996766E16513B0F0BD14
:10426000F8B500218165C16501664166018002469D
:10427000C180E0329173D17311745174603A516707
:10428000C71DF93791673960B976F976BC79002C8A
:1042900015D00023E207D20F02D06C23195201235C
:1042A000A2420CDA5D002D184035A9855B1C5D002B
:1042B0002D184035921C5B1CA985A242F2DBEC2232
:1042C0001154B98000212C30FEF790F9F8BD006838
:1042D0000121FF3001308176704700680121FF30F5
:1042E0000130C17670474030028D1146428D88B250
:1042F0001104084370478030806F7047FF231533E7
:104300001B5C816D19410A46C16D90B219410904C7
:10431000084370478030406F7047038B0B80808B61
:1043200010807047F8B50446C61DF9362746B07BA5
:10433000E037B87301203877054600202085242116
:10434000615E2A480091FBF7E1FE00B2002808D028
:10435000C10F0818218D4010491C6D0021850028CF
:10436000F6D129B2E184009848432149FBF7CEFEFB
:1043700020840025A565E565256665662580E580C0
:10438000BD73FD733D7421467D7480314D678D672B
:104390003560B576F576B446B67920462146002ECE
:1043A00015D00023F207D20F02D06C235D520123F7
:1043B000B2420CDA5F007F184037BD855B1C5F009E
:1043C0007F184037921C5B1CBD85B242F2DBE031A6
:1043D0000D7361468D8000212C30FEF707F92046D1
:1043E0002C30FEF7F9F82581F8BD00005EEA0F00D9
:1043F000BE280000F0B4C41DF934A183E27E00257C
:10440000012A01D10421415EA37E0246E032012B44
:104410002ED00423C35E1E464E43002E2FDD002BFC
:1044200001DA5B421BB2002901DA494209B2A67ADD
:104430004E43F7173F0FBE19361136B2B446E67A2F
:104440004E43F117090F89190911567B09B2012E44
:1044500013D1A7899EB2BE420FD98B420DDB6345B3
:104460000BDC917B491CC9B29173A37B994206D3A3
:10447000012515740021817201E000209073284607
:10448000F0BC70470068E030407B70470183828356
:10449000704710B500212C30FEF7A8F810BD70B59C
:1044A0002C3014460546FEF7A7F821462846FEF7AD
:1044B000A1F870BD10B5084C2078022805D1FCF792
:1044C00017F8FCF707FC00202070C0B2401C2070D9
:1044D000FDF71CFC10BD00007807002013480168A0
:1044E0000122114301604168114A11404160016895
:1044F000104A114001600168012292049143016059
:1045000041683F22120491434160C16A09090901CF
:10451000C162016BFF22143291430163416B490870
:104520004900416300218160704700000010024093
:104530000CB8FF08FFFFF6FE0F49086AC068026961
:10454000D243D20705D1C268D243D20701D1921E0D
:104550000261086AC0680169C94309060BD4C168D1
:10456000C943090607D410B58021C9430161034836
:10457000FBF776FE10BD7047D802002058020020DD
:1045800010B505480068FEF77BFD00228021034836
:10459000FFF79EFB10BD00005C0700206C070020A9
:1045A000F0B58DB0002050490A90881C06904A8BC7
:1045B00068468281898BC1814C484B4C0078132816
:1045C00009D14B4D2868FFF73AF9002803D1286834
:1045D000FFF796F8208247480068FFF74EFBFFF789
:1045E0006DFA0090444809A90068FEF7A0F8FEF7AC
:1045F0001FFF0998FCF774FF07460099FCF796FF28
:1046000005461020205E29B2411A3C480068FDF79B
:10461000F5FF06461220205E2914411A384800682A
:10462000FDF7ECFFB1B200040143E182080C2083E6
:1046300034480068FBF7CDFD0099FCF7B7FF06464C
:104640002D4831460068FEF774F80290FEF7ECFF43
:104650006846808C20806846C08C6080A780380CBB
:10466000E080A581280CE0810698310C0683418307
:10467000009820840298012818D02348FFF75AF99F
:104680000546A08869460882E08848821F48C069BC
:1046900000F0BBFD6946888203A91D48FFF7F7FCBF
:1046A0001B48FFF7E5FB002D06D008E000220121A2
:1046B0000E48FFF70DFB13E01548FFF7EAFE0B4825
:1046C000FFF724FB042803D0132801D0052807D1C5
:1046D0000F48FFF7F3F9694608800E4800F0D6FD51
:1046E0000A980DB0F0BD0000C00700206C07002044
:1046F00068070020440700205C0700204C070020CA
:104700005007002064070020E00100203807002047
:104710006C030020FC020020F8B505461F48AE00DF
:10472000006800901E488059FDF7F8FE6A0069464F
:10473000895A084007461B488059FDF7D5FF384382
:104740000446002D07D11848C069FFF743F96946B0
:10475000098808400443E04382B2062013496843B5
:10476000471821463846FFF7B3FA3846FFF7CEFA26
:104770000A2806D00B2803D10A488059FEF796F87C
:10478000F8BD08488059FEF791F82846FBF778FEF7
:1047900007488059FDF758FDF8BD0000BC590008D6
:1047A000580700205C070020380700206C07002015
:1047B000600700200021FF3001300177704710B5FD
:1047C000FBF792FD10BD08B508216A461170012360
:1047D000FF2100F061F808BDF8B5C41DF934227F4F
:1047E000214E0746002A3CD0627F05468035C9B27B
:1047F000002A0BD0012A0FD0AB7E99309B1C9A4225
:104800000ED21154607F401C60772AE06976388AA6
:104810007882164E012001E0A9760220607720E020
:10482000E17600217982216A114E0A6820239A4399
:104830000A6000212177FBF729FDE17E884207D13C
:104840003A46BC68AB7E697E9B323868A04708E078
:104850000A206946087001236A46FF21384600F0A5
:104860001BF83046F8BD0000185C00081A5C000810
:104870001C5C0008FF300130017F002901D00120BD
:1048800070470021417701210177006A01682022E9
:104890001143016002207047F8B505460646803591
:1048A000E87D002801D00120F8BD317534467375CC
:1048B0001846163401275B1E002815DDD907F807B6
:1048C000521E641EC14203D050786070521C641C9A
:1048D0005B1C581008D0517861709178A170401E0F
:1048E000921CA41C0028F6D130461430FBF7CEFCF5
:1048F000A87500202876FF36EF750136306A01680A
:104900008022114301600220F8BD30B40346803399
:10491000DA7D0146002A1CD01A7E002A09D0012A1D
:1049200009D04C7DA41CA24207D20C461434125D5F
:1049300004E00A7D02E04A7D00E09A7DC81DF9305E
:10494000046A22854C7D1A7EA41CA24203D2521C0A
:104950001A7630BC7047006A02688024A243026065
:104960000020D8750868496830BC084770B582686F
:10497000007D0124800015580F292ED208007844AC
:10498000007900188744291915072A2A101D2125A6
:104990002929292915002846FCF75AFD06281DD18A
:1049A0002846FCF798FD19E02846FCF751FD002841
:1049B00003D02846FCF789FD10E02846FCF77AFD75
:1049C0000CE02846FCF7EFFC08E02846FCF798FCD2
:1049D00004E02846FCF78AFC00E00024204670BD75
:1049E00070B515460A468168007D80000C58062186
:1049F0001046FBF78BFB01B22A462046FCF7C3FCAE
:104A0000012070BD00207047F0B503461E7DC068D0
:104A1000B5004259986883B044590020C043242906
:104A200070D018DC24293AD20F007F443F79FF1957
:104A3000BF4456595E6369707A85FA8A8C8E909469
:104A40009CA0A4B83535DCCB353535F9F8F73535CC
:104A5000F6F5F435F3F2352970D00FDC253910293D
:104A60001DD20E007E443679B619B744E7E6FAFE49
:104A7000DD73E5E4E3E21818E1E0DFDE5B2972D0E4
:104A80001ADC412966D00CDC36296DD03F296CD068
:104A9000402904D1506AFFF7ECF80621484303B0DF
:104AA000F0BD42297BD04329F9D119694B59002126
:104AB0001C0F092C74D08CE1D34B722971D008DC07
:104AC0006E292CD06F2934D07029E8D1CF4803B09B
:104AD000F0BD732965D08129F9D1002003B0F0BD64
:104AE000304603B0F0BD906AFFF70BF903B0F0BD9C
:104AF000906AFFF70BF903B0F0BD2046FCF75FFCAE
:104B000003B0F0BDBDE02046FCF79DFC0621484304
:104B100003B0F0BD1068FDF759FD03B0F0BD10689B
:104B2000FDF758FD03B0F0BD1068FDF749FD03B077
:104B3000F0BD1068FDF748FD03B0F0BD0AE1106854
:104B4000FDF73AFD03B0F0BD506808E050680EE094
:104B5000506810E02046FCF766FC37E19068FDF7EE
:104B600035FD03B0F0BD40E107E118E19068FDF7C5
:104B700027FDF6E79068FDF71FFDF2E71869415938
:104B800000200B0F092B00D190690901090F092999
:104B900000D1D06900283BD001AA694612E004E1A7
:104BA00016E12EE11869415900200B0F092B00D1A5
:104BB00090690901090F092900D1D069002827D07F
:104BC0006A4601A9FFF7A9FB22E0186941590020B4
:104BD0000B0F092B00D190690901090F092900D198
:104BE000D069002814D001AA69460FE0186941591C
:104BF00000200B0F092B00D190690901090F092929
:104C000000D1D069002803D06A4601A9FFF71CF93A
:104C100069460020085EA4E72FE02AE025E020E0B6
:104C200019E014E00FE00AE037E081E06DE05AE0BF
:104C300047E042E03DE038E033E02AE025E0106B59
:104C400000F0DEFA8DE7D06AFDF792FC89E7D06BC1
:104C5000FDF706FB85E72046FCF7AAFB0621484343
:104C60007FE72046FCF7D7FB60E02046FCF7D3FB4C
:104C7000ACE05069FEF767FE73E72046FCF7A1FB46
:104C800054E02046FCF79DFBA0E02046FCF7A1FB8A
:104C90004CE02046FCF79DFB98E02046FCF7C3FB68
:104CA00044E02046FCF7E5FB40E02046FCF7E1FB52
:104CB0008CE02046FCF7D5FB38E02046FCF7D1FB22
:104CC00084E019694B5900211C0F092C00D191690E
:104CD0001B011B0F092B00D1D16900299BD008466D
:104CE000FEF7ECFE3DE719694B5900211C0F092C1A
:104CF00000D191691B011B0F092B00D1D16900293B
:104D000089D00846FEF7DEFE2BE719694B590021D2
:104D10001C0F092C00D191691B011B0F092B00D11D
:104D2000D16900298ED00846FFF7E8FA00B218E7EB
:104D300019694B5900211C0F092C00D191691B01E5
:104D40001B0F092B00D1D169002989D00846FFF734
:104D5000D5FA3BE019694B5900211C0F092C00D1F1
:104D600091691B011B0F092B00D1D1690029B9D012
:104D70000846FFF7B8FA00B2F3E619694B5900216B
:104D80001C0F092C00D191691B011B0F092B00D1AD
:104D9000D1690029A6D00846FFF7A5FA16E0506AA7
:104DA000FEF75BFF06214843DBE619694B590021FA
:104DB0001C0F092C00D191691B011B0F092B00D17D
:104DC000D16900298ED00846FFF795FA0014C8E68D
:104DD00091691B011B0F092B00D1D169002993D0C8
:104DE0000846FFF797FA0014BBE62046FCF7E7FAFF
:104DF000012800D087E62046FCF71DFB062148432A
:104E0000AFE61846ADE600001A2700007A84A63403
:104E1000FFB5C168007D81B0800008580125446954
:104E20000A9F1E46002C10D020460299FEF78EFDE8
:104E30000399088020460299FEF78DFD30802046B8
:104E40000299FEF78EFD388000E00025284605B067
:104E5000F0BD10B5FCF752FF002802D0FDF7DCF8DA
:104E600010BDFDF7D1F810BD10B4019C0171C360F5
:104E7000002182600175046110BC704709484188B7
:104E8000002902D04188491E41808188012902D928
:104E90008188491E81800188012902D90188491E23
:104EA000018070477C07002001494F2088807047AF
:104EB0007C07002001490020888070477C07002083
:104EC00010B58468007D89B2800012042058114317
:104ED000FCF7E1FA10BDF0B516460246137DC06836
:104EE0009B009468C058E758012583B034B20C2960
:104EF0006BD00CDC0C2924D20B007B441B79DB1813
:104F00009F441A1F1F231F3A3F444954595E1129D9
:104F10006FD008DC0D2962D00E2965D00F296AD028
:104F200010290ED16CE014297CD015297BD04129A1
:104F30007AD05B2905D1D8E01179F0B20125814200
:104F400001D80025DAE01075D8E03006000E07D150
:104F50003846FCF782FA014600223846FCF71AFA76
:104F6000F0B201283FD13846FCF76DFA0146002225
:104F70003846FCF708FAC1E000682146FDF73CFB23
:104F8000BCE000682146FDF735FBB7E0006821462C
:104F9000FDF72EFBB2E03846FCF745FA010C090498
:104FA000A0B201433846FCF776FAA7E040682146F4
:104FB000FDF722FBA2E040682146FDF71BFB9DE0C8
:104FC00040682146FDF714FB98E03846FCF72BFAC1
:104FD00081B2200401433846FCF75DFA8EE0806818
:104FE0002146FDF709FB89E080682146FDF702FBB9
:104FF00084E024E0FFE780682146FDF7F9FA7DE0D0
:1050000011690026C9580A0F092A00D186690901C9
:10501000090F092900D1C669002E6FD06A4601A97F
:10502000304602E026E040E05AE0FFF776F96846B5
:105030000022825E21463046FFF728FA5EE01169C1
:105040000026C9580A0F092A00D186690901090FEB
:10505000092900D1C669002E50D001AA6946304600
:10506000FFF75BF968460021415E22463046FFF7B4
:105070000DFA43E011690026C9580A0F092A00D128
:1050800086690901090F092900D1C669002E35D0AA
:1050900001AA69463046FEF7D7FE68460021415E08
:1050A00022463046FFF7FBF928E011690026C9586F
:1050B0000A0F092A00D186690901090F092900D1BF
:1050C000C669002E1AD06A4601A93046FEF7BCFE1A
:1050D00068460022825E21463046FFF7E0F90DE087
:1050E00021463846FCF7E1F908E006213046FBF797
:1050F0000DF801B200223846FCF745F9284603B006
:10510000F0BDF8B50E46C168007D1C468000085809
:10511000069D476931463846FEF74DFC224631462A
:105120003846FEF74DFC2A4631463846FEF74DFC20
:105130000120F8BDFFB583B0124C11480C9D1249F7
:10514000E060CCC9CCC04A680968426001600F4881
:10515000FFF735FBA0680E490091029501900D4BB9
:105160000D4A0A49E068FCF789FA03980090069B0B
:10517000059A0499E068FFF777FE07B0F0BD0000DC
:105180009C0800207C07002094070020FC050020DC
:10519000B5470008754800089948000810B5164C36
:1051A000206AC169C94389060FD4808CC1B21348F3
:1051B000FFF712FB0088012802D0022803D004E088
:1051C000FFF772FE01E0FFF775FE206AC069C04379
:1051D000000602D40948FFF798FB206AC069C04363
:1051E000000707D40548FFF7EEFA206A082101629C
:1051F000FFF760FE10BD0000FC060020FC0500204B
:10520000C18840884843000C7047C088704770B51B
:105210000446008C00260D46012815D9A169E069D5
:105220004018C117090CE06108180014E080A18A39
:1052300048430A214843E17A0904FAF767FF2880C6
:10524000A080208C401E1CE001280CD0A088288063
:105250002520005D002816D029462046FEF73EFC9A
:105260000646304670BD608C2880A080A18A0A2046
:10527000414328880004FAF749FFE17A4843E08077
:1052800000202084E4E7207CA072EAE7F0B5044621
:1052900083B00120254620350090E87A0E4601288B
:1052A00011D00621208D615E401820852046E27ACB
:1052B00030300190FBF731F8618840186080287920
:1052C000012803D037E00020085E36E02620205E6B
:1052D00000280BD0401E01B2E1840620205E002889
:1052E0000BDB3088228D801A07B20DE00020305E83
:1052F000012169710021A1721FE0208D3288801A7E
:1053000007B20020C04300902E227943A25E01988C
:10531000FBF703F80099484300B2002F04DB01219A
:10532000A9723188081A04E0A97A002903D03188CB
:10533000081800B201E02820205E208003B0F0BDF4
:1053400070B504460020A07220806080A080E080BC
:105350002081A061E06120842146208520310871F0
:105360004871E28DE2848872C87220463030E27A59
:1053700001210546FAF7D1FF2E22A25E012128461F
:10538000FAF7CBFF70BD70B5044630300546FBF729
:1053900065F80020A07220806080A080E0802081DD
:1053A000A061E06120842146208520310871487188
:1053B000E28DE2848872C872E27A01212846FAF707
:1053C000ACFF2E22A25E01212846FAF7A6FF70BD8F
:1053D000F0B504462030007983B00E46002828D16D
:1053E0003504002A27D0A08D7D215043C900FAF74B
:1053F00077FE401C80B201902084E07A0090062065
:10540000205E02900099FAF781FE0746A18A0A20E1
:1054100041432846FAF77AFEC01B00040199FAF7C7
:1054200075FE014600984843A06166840298000416
:10543000E06103B0F0BDA680A18A0A20414328465E
:10544000FAF764FEE17A4843E08000202084668415
:1054500003B0F0BD70B50C46054601852046E97ADB
:10546000FAF754FE68802C8070BD10B40122002928
:105470000AD00146012320310B71C48D002C03D1C9
:105480004B71002181720A4610BC104670472030D3
:105490004079704702E008C8121F08C1002AFAD1FB
:1054A00070477047002001E001C1121F002AFBD1A4
:1054B0007047000094B0FBF723F8002401270F94F5
:1054C000122005970194099400900B940E941020DB
:1054D0000D94109413941294049006900397022054
:1054E0000890029405200794C0040C940A9011942B
:1054F0006846FBF701FA07200C9002200D900E94ED
:1055000001210F940CA8FBF7D1F810A81097129462
:10551000FBF74EF8FBF7A2F902940694D94D0394D9
:1055200004940594079401946869B9050843686177
:1055300068690840089068694911084368616869AA
:105540000840089068694900084368616869084034
:105550000890C9110920C0068161CB4E8020B0613E
:1055600041010920C00681624020B062C7488068BE
:105570000521000900010843C4498860F0688008DB
:1055800080003843F06030688008800030606846F2
:1055900000970771447102218171FBF705FCE81443
:1055A000029002200690092004940397059402A912
:1055B000C006FBF755FCA8140290022006900920B3
:1055C00004940397059402A9C006FBF749FC402008
:1055D00002900220069004940397059402A9304695
:1055E000FBF73EFC80200290022006900494039773
:1055F000059402A93046FBF733FC686938436861BB
:1056000068690F940C940D940E940A943840079492
:1056100008940994059406940294039404940090C9
:10562000A86969150843A861A86908400B906869D2
:10563000090208436861686908400B90686949007D
:1056400008436861686908400B90082000900320B7
:10565000019009206946C006FBF702FC102000906B
:1056600003200190092069460494C006FBF7F8FB6B
:105670002020009003200190092069460494C00670
:10568000FBF7EEFB02200090032001906946049492
:105690007F48FBF7E5FB80497E480A7883587F4EB8
:1056A000334083500B78C25803263603B2437E033F
:1056B0003243C2500A7883582026B3433343835081
:1056C0000A7883584026B34383500A78835880264B
:1056D000B343334383500B78C25803263602B24398
:1056E00086153243C2500A78815803239B0299439E
:1056F0000315194381506A4EB16A08200143B16213
:10570000B06A10210843B062B16A20200143B1623F
:10571000B06A59100843B06220200E900C940D948A
:105720000CA90F943046FBF70BFB281506900320BD
:1057300009900794089406A90A943046FBF718FBD1
:10574000F06804218843F0607069C008C0003843E5
:10575000706170688843706071680820814371606F
:10576000F06803218902884329150843F0606869BD
:1057700038436861686938400090FCF795FD0794EC
:105780000694089409940A940C940B94029403943C
:1057900004940594A869B9030843A861A86908405E
:1057A0000D906869090108436861686908400D90B7
:1057B000402000900220019069463548FBF750FBDD
:1057C0008020009002200190029403940494694682
:1057D00005942F48FBF744FB4B20C00106900C209A
:1057E00007940A90089409940B9406A90C942D48E8
:1057F000FBF730FD2B488168001581432948816003
:105800008068A91408432749886048680921C902AB
:1058100088432449486088682A2188432149886050
:10582000086838430860FCF71FFD1F480068FF2127
:10583000090288431C4908601C49701408601C4810
:105840000068FF2109028843194908601749681553
:1058500008601848006803210002000A890708430D
:10586000144908601149E803086013480068FF21E3
:1058700009028843104908600C4920200860FCF7A1
:10588000C3FBFCE700100240001400480000014088
:10589000000400480000024088590008EFBFFFFFE5
:1058A00000240140003801400CE400E000E100E089
:1058B00008E400E018E400E004E400E00821092026
:1058C00081B02B4AC006C261C161C261C169009149
:1058D000284A2021C261C161C261C1690091264A82
:1058E0001021C261C161C261C1690091244B234A88
:1058F0000221DA61D961DA61D96900912149121274
:10590000C161C261C161C169009152008121490236
:10591000C161C261C161C1690091D2001121090355
:10592000D961DA61D961D9690091920005218903B1
:10593000D961DA61D961D9690091121141218902D5
:10594000C161C261C161C069510100900320C003FF
:105950001A46D061D161D061D0698910009090134E
:10596000D061D161D061D069009001B07047000072
:1059700008000100200001001000010002000100E9
:105980000004004800010100081C304458000000D9
:1059900000040404000008000000085354204D4394
:1059A0002053444B095665722E352E332E3300009A
:1059B000000000000000000000000000F7FF0000F1
:1059C000010504032600010060002A00002C0140AC
:1059D00001000000000000000000000000000000C6
:1059E00000000000000000000000000000000000B7
:1059F000000000000102030406070809000000007F
:105A0000010203040000C90092015B022403ED03BC
:105A1000B6047F0548061107D907A2086A09330AA8
:105A2000FB0AC40B8C0C540D1C0EE30EAB0F721052
:105A30003A110112C8128F1355141C15E215A8163D
:105A40006E173318F918BE19821A471B0B1CCF1C8E
:105A5000931D571E1A1FDD1F9F2061212322E5225F
:105A6000A62367242825E825A82667272628E528D1
:105A7000A329612A1F2BDC2B992C552D112ECC2EFE
:105A8000872F4130FB30B5316E322633DF33963409
:105A90004D350436BA366F372438D9388C39403A08
:105AA000F23AA53B563C073DB83D683E173FC53F1F
:105AB00073402141CE417A422543D0437A44244564
:105AC000CD4575461C47C34769480F49B449584AF4
:105AD000FB4A9D4B3F4CE04C814D204EBF4E5D4FED
